{
  "_format": "hh-sol-artifact-1",
  "contractName": "WavePortal",
  "sourceName": "contracts/WavePortal.sol",
  "abi": [
    {
      "inputs": [],
      "stateMutability": "payable",
      "type": "constructor"
    },
    {
      "anonymous": false,
      "inputs": [
        {
          "indexed": true,
          "internalType": "address",
          "name": "from",
          "type": "address"
        },
        {
          "indexed": false,
          "internalType": "uint256",
          "name": "timestamp",
          "type": "uint256"
        },
        {
          "indexed": false,
          "internalType": "string",
          "name": "message",
          "type": "string"
        }
      ],
      "name": "NewWave",
      "type": "event"
    },
    {
      "inputs": [],
      "name": "getAllWaves",
      "outputs": [
        {
          "components": [
            {
              "internalType": "address",
              "name": "waver",
              "type": "address"
            },
            {
              "internalType": "string",
              "name": "message",
              "type": "string"
            },
            {
              "internalType": "uint256",
              "name": "timestamp",
              "type": "uint256"
            }
          ],
          "internalType": "struct WavePortal.Wave[]",
          "name": "",
          "type": "tuple[]"
        }
      ],
      "stateMutability": "view",
      "type": "function"
    },
    {
      "inputs": [],
      "name": "getSeed",
      "outputs": [
        {
          "internalType": "uint256",
          "name": "",
          "type": "uint256"
        }
      ],
      "stateMutability": "view",
      "type": "function"
    },
    {
      "inputs": [],
      "name": "getTotalWaves",
      "outputs": [
        {
          "internalType": "uint256",
          "name": "",
          "type": "uint256"
        }
      ],
      "stateMutability": "view",
      "type": "function"
    },
    {
      "inputs": [
        {
          "internalType": "string",
          "name": "_message",
          "type": "string"
        }
      ],
      "name": "wave",
      "outputs": [],
      "stateMutability": "nonpayable",
      "type": "function"
    }
  ],
  "bytecode": "0x6080604052600560025562000038604051806060016040528060228152602001620013f7602291396200006060201b620005eb1760201c565b60644442620000489190620001ad565b6200005491906200024a565b600181905550620002f1565b62000100816040516024016200007791906200016d565b6040516020818303038152906040527f41304fac000000000000000000000000000000000000000000000000000000007bffffffffffffffffffffffffffffffffffffffffffffffffffffffff19166020820180517bffffffffffffffffffffffffffffffffffffffffffffffffffffffff83818316178352505050506200010360201b60201c565b50565b60008151905060006a636f6e736f6c652e6c6f679050602083016000808483855afa5050505050565b6000620001398262000191565b6200014581856200019c565b93506200015781856020860162000214565b6200016281620002e0565b840191505092915050565b600060208201905081810360008301526200018981846200012c565b905092915050565b600081519050919050565b600082825260208201905092915050565b6000620001ba826200020a565b9150620001c7836200020a565b9250827fffffffffffffffffffffffffffffffffffffffffffffffffffffffffffffffff03821115620001ff57620001fe62000282565b5b828201905092915050565b6000819050919050565b60005b838110156200023457808201518184015260208101905062000217565b8381111562000244576000848401525b50505050565b600062000257826200020a565b915062000264836200020a565b925082620002775762000276620002b1565b5b828206905092915050565b7f4e487b7100000000000000000000000000000000000000000000000000000000600052601160045260246000fd5b7f4e487b7100000000000000000000000000000000000000000000000000000000600052601260045260246000fd5b6000601f19601f8301169050919050565b6110f680620003016000396000f3fe608060405234801561001057600080fd5b506004361061004c5760003560e01c806339e7357c14610051578063449d46c01461006f5780639a2cdc081461008b578063bd43a908146100a9575b600080fd5b6100596100c7565b6040516100669190610caf565b60405180910390f35b61008960048036038101906100849190610942565b6100d1565b005b61009361044f565b6040516100a09190610caf565b60405180910390f35b6100b161049a565b6040516100be9190610bab565b60405180910390f35b6000600154905090565b426000600460003373ffffffffffffffffffffffffffffffffffffffff1673ffffffffffffffffffffffffffffffffffffffff1681526020019081526020016000205461011e9190610dc1565b1061015e576040517f08c379a000000000000000000000000000000000000000000000000000000000815260040161015590610c8f565b60405180910390fd5b42600460003373ffffffffffffffffffffffffffffffffffffffff1673ffffffffffffffffffffffffffffffffffffffff168152602001908152602001600020819055506101b8600160005461068490919063ffffffff16565b600081905550600360405180606001604052803373ffffffffffffffffffffffffffffffffffffffff16815260200183815260200142815250908060018154018082558091505060019003906000526020600020906003020160009091909190915060008201518160000160006101000a81548173ffffffffffffffffffffffffffffffffffffffff021916908373ffffffffffffffffffffffffffffffffffffffff160217905550602082015181600101908051906020019061027d929190610837565b506040820151816002015550506064600154424461029b9190610dc1565b6102a59190610dc1565b6102af9190610ef8565b6001819055506032600154116103fc576102fe6040518060400160405280600781526020017f257320776f6e2100000000000000000000000000000000000000000000000000815250336106d6565b6000662386f26fc1000090504781111561034d576040517f08c379a000000000000000000000000000000000000000000000000000000000815260040161034490610c4f565b60405180910390fd5b60003373ffffffffffffffffffffffffffffffffffffffff168260405161037390610b96565b60006040518083038185875af1925050503d80600081146103b0576040519150601f19603f3d011682016040523d82523d6000602084013e6103b5565b606091505b50509050806103f9576040517f08c379a00000000000000000000000000000000000000000000000000000000081526004016103f090610c6f565b60405180910390fd5b50505b3373ffffffffffffffffffffffffffffffffffffffff167f5f7e16dc676677766a70e9c5628aa6c54ddb8b6e5188e2ae1e1f17f1ffbea7164283604051610444929190610cca565b60405180910390a250565b60006104926040518060400160405280601781526020017f5765206861766520256420746f74616c20776176657321000000000000000000815250600054610772565b600054905090565b60606003805480602002602001604051908101604052809291908181526020016000905b828210156105e257838290600052602060002090600302016040518060600160405290816000820160009054906101000a900473ffffffffffffffffffffffffffffffffffffffff1673ffffffffffffffffffffffffffffffffffffffff1673ffffffffffffffffffffffffffffffffffffffff16815260200160018201805461054790610e95565b80601f016020809104026020016040519081016040528092919081815260200182805461057390610e95565b80156105c05780601f10610595576101008083540402835291602001916105c0565b820191906000526020600020905b8154815290600101906020018083116105a357829003601f168201915b50505050508152602001600282015481525050815260200190600101906104be565b50505050905090565b610681816040516024016105ff9190610bcd565b6040516020818303038152906040527f41304fac000000000000000000000000000000000000000000000000000000007bffffffffffffffffffffffffffffffffffffffffffffffffffffffff19166020820180517bffffffffffffffffffffffffffffffffffffffffffffffffffffffff838183161783525050505061080e565b50565b60008082846106939190610dc1565b9050838110156106cc577f4e487b7100000000000000000000000000000000000000000000000000000000600052600160045260246000fd5b8091505092915050565b61076e82826040516024016106ec929190610bef565b6040516020818303038152906040527f319af333000000000000000000000000000000000000000000000000000000007bffffffffffffffffffffffffffffffffffffffffffffffffffffffff19166020820180517bffffffffffffffffffffffffffffffffffffffffffffffffffffffff838183161783525050505061080e565b5050565b61080a8282604051602401610788929190610c1f565b6040516020818303038152906040527f9710a9d0000000000000000000000000000000000000000000000000000000007bffffffffffffffffffffffffffffffffffffffffffffffffffffffff19166020820180517bffffffffffffffffffffffffffffffffffffffffffffffffffffffff838183161783525050505061080e565b5050565b60008151905060006a636f6e736f6c652e6c6f679050602083016000808483855afa5050505050565b82805461084390610e95565b90600052602060002090601f01602090048101928261086557600085556108ac565b82601f1061087e57805160ff19168380011785556108ac565b828001600101855582156108ac579182015b828111156108ab578251825591602001919060010190610890565b5b5090506108b991906108bd565b5090565b5b808211156108d65760008160009055506001016108be565b5090565b60006108ed6108e884610d1f565b610cfa565b90508281526020810184848401111561090557600080fd5b610910848285610e53565b509392505050565b600082601f83011261092957600080fd5b81356109398482602086016108da565b91505092915050565b60006020828403121561095457600080fd5b600082013567ffffffffffffffff81111561096e57600080fd5b61097a84828501610918565b91505092915050565b600061098f8383610b28565b905092915050565b6109a081610e17565b82525050565b6109af81610e17565b82525050565b60006109c082610d60565b6109ca8185610d83565b9350836020820285016109dc85610d50565b8060005b85811015610a1857848403895281516109f98582610983565b9450610a0483610d76565b925060208a019950506001810190506109e0565b50829750879550505050505092915050565b6000610a3582610d6b565b610a3f8185610d9f565b9350610a4f818560208601610e62565b610a5881610fe5565b840191505092915050565b6000610a6e82610d6b565b610a788185610db0565b9350610a88818560208601610e62565b610a9181610fe5565b840191505092915050565b6000610aa9603483610db0565b9150610ab482610ff6565b604082019050919050565b6000610acc602783610db0565b9150610ad782611045565b604082019050919050565b6000610aef600083610d94565b9150610afa82611094565b600082019050919050565b6000610b12600883610db0565b9150610b1d82611097565b602082019050919050565b6000606083016000830151610b406000860182610997565b5060208301518482036020860152610b588282610a2a565b9150506040830151610b6d6040860182610b78565b508091505092915050565b610b8181610e49565b82525050565b610b9081610e49565b82525050565b6000610ba182610ae2565b9150819050919050565b60006020820190508181036000830152610bc581846109b5565b905092915050565b60006020820190508181036000830152610be78184610a63565b905092915050565b60006040820190508181036000830152610c098185610a63565b9050610c1860208301846109a6565b9392505050565b60006040820190508181036000830152610c398185610a63565b9050610c486020830184610b87565b9392505050565b60006020820190508181036000830152610c6881610a9c565b9050919050565b60006020820190508181036000830152610c8881610abf565b9050919050565b60006020820190508181036000830152610ca881610b05565b9050919050565b6000602082019050610cc46000830184610b87565b92915050565b6000604082019050610cdf6000830185610b87565b8181036020830152610cf18184610a63565b90509392505050565b6000610d04610d15565b9050610d108282610ec7565b919050565b6000604051905090565b600067ffffffffffffffff821115610d3a57610d39610fb6565b5b610d4382610fe5565b9050602081019050919050565b6000819050602082019050919050565b600081519050919050565b600081519050919050565b6000602082019050919050565b600082825260208201905092915050565b600081905092915050565b600082825260208201905092915050565b600082825260208201905092915050565b6000610dcc82610e49565b9150610dd783610e49565b9250827fffffffffffffffffffffffffffffffffffffffffffffffffffffffffffffffff03821115610e0c57610e0b610f29565b5b828201905092915050565b6000610e2282610e29565b9050919050565b600073ffffffffffffffffffffffffffffffffffffffff82169050919050565b6000819050919050565b82818337600083830152505050565b60005b83811015610e80578082015181840152602081019050610e65565b83811115610e8f576000848401525b50505050565b60006002820490506001821680610ead57607f821691505b60208210811415610ec157610ec0610f87565b5b50919050565b610ed082610fe5565b810181811067ffffffffffffffff82111715610eef57610eee610fb6565b5b80604052505050565b6000610f0382610e49565b9150610f0e83610e49565b925082610f1e57610f1d610f58565b5b828206905092915050565b7f4e487b7100000000000000000000000000000000000000000000000000000000600052601160045260246000fd5b7f4e487b7100000000000000000000000000000000000000000000000000000000600052601260045260246000fd5b7f4e487b7100000000000000000000000000000000000000000000000000000000600052602260045260246000fd5b7f4e487b7100000000000000000000000000000000000000000000000000000000600052604160045260246000fd5b6000601f19601f8301169050919050565b7f547279696e6720746f207769746864726177206d6f7265206d6f6e657920746860008201527f616e2074686520636f6e7472616374206861732e000000000000000000000000602082015250565b7f4661696c656420746f207769746864726177206d6f6e65792066726f6d20636f60008201527f6e74726163742e00000000000000000000000000000000000000000000000000602082015250565b50565b7f576169742031307300000000000000000000000000000000000000000000000060008201525056fea2646970667358221220ff73b14bc857610ef86c8ad1a48dbe9d145192056ce22d79ea402dceddf922d664736f6c634300080400334920616d2061207761766520636f756e74657220736d61727420636f6e7472616374",
  "linkReferences": {},
  "deployedLinkReferences": {}
}